:060000000A128A11C02F54
:100EAC003F3406345B344F3466346D347D34073450
:100EBC007F346F347E088A007F0882000A128A1100
:100ECC0060270A128A118000840A04087D0603191F
:100EDC000034FF0A0319FE0A642F831603138601DC
:100EEC000514831203138601FC01FD0170088600B2
:100EFC0083120313051C832F842F7E2F1A30FB00C3
:100F0C00F830FA00FA0B882FFB0B882F00008312A5
:100F1C000313051C922F932F7E2F0130FC0703180F
:100F2C00FD0A0030FD077D08803AFF0080307F020B
:100F3C00031DA22F0A307C02031CA52FA62FA82F5D
:100F4C00FC01FD017C08703E840000088312031331
:100F5C0086000518B22FB32FAF2F1A30FB00F830D4
:100F6C00FA00FA0BB72FFB0BB72F00007E2F0A12DB
:100F7C008A1100280A128A1156270A128A11F000C7
:100F8C000A128A1157270A128A11F1000A128A11C1
:100F9C0058270A128A11F2000A128A1159270A12CA
:100FAC008A11F3000A128A115A270A128A11F400C4
:100FBC000A128A115B270A128A11F5000A128A1189
:100FCC005C270A128A11F6000A128A115D270A128E
:100FDC008A11F7000A128A115E270A128A11F80088
:100FEC000A128A115F270A128A11F90083010A1268
:040FFC008A11732FB4
:02400E007A3FF7
:00000001FF
